:100000000C9436000C945E000C945E000C945E0020
:100010000C945E000C945E000C945E000C945E00E8
:100020000C945E000C945E000C945E000C945E00D8
:100030000C945E000C945E000C945E000C945E00C8
:100040000C946B020C945E000C94DB020C94B502D1
:100050000C945E000C945E000C945E000C945E00A8
:100060000C945E000C945E000D03B80411241FBEB6
:10007000CFEFD8E0DEBFCDBF11E0A0E0B1E0E6E514
:10008000FFE002C005900D92AE31B107D9F721E033
:10009000AEE1B1E001C01D92A63DB207E1F710E06C
:1000A000C5E3D0E004C02197FE010E948C05C43353
:1000B000D107C9F70E9448030C949E070C940000D6
:1000C000CF92DF92EF92FF920F931F93CF93DF9324
:1000D0006C017A018B01C0E0D0E0CE15DF0589F01C
:1000E000D8016D918D01D601ED91FC910190F081C7
:1000F000E02DC6010995892B11F47E0102C02196DD
:10010000ECCFC701DF91CF911F910F91FF90EF903E
:10011000DF90CF900895089580E090E00895FC016D
:10012000538D448D252F30E0842F90E0821B930B5C
:10013000541710F0CF96089501970895FC01918D02
:10014000828D981761F0828DDF01A80FB11D5D9639
:100150008C91928D9F5F9F73928F90E008958FEFA7
:100160009FEF0895FC01918D828D981731F0828D5B
:10017000E80FF11D858D90E008958FEF9FEF0895B2
:10018000FC01918D228D892F90E0805C9F4F821B16
:1001900091098F73992708958FE291E00E94C00022
:1001A00021E0892B09F420E0822F0895FC01848D41
:1001B000DF01A80FB11DA35ABF4F2C91848D90E091
:1001C00001968F739927848FA689B7892C93A0896C
:1001D000B1898C9180648C93938D848D981306C023
:1001E0000288F389E02D80818F7D80830895EF92CE
:1001F000FF920F931F93CF93DF93EC0181E0888FE1
:100200009B8D8C8D981305C0E889F989808185FDC7
:1002100024C0F62E0B8D10E00F5F1F4F0F731127B8
:10022000E02E8C8DE8120CC00FB607FCFACFE889DF
:10023000F989808185FFF5CFCE010E94D600F1CFEC
:100240008B8DFE01E80FF11DE35AFF4FF0820B8FFB
:10025000EA89FB898081806207C0EE89FF8960831B
:10026000E889F98980818064808381E090E0DF9172
:10027000CF911F910F91FF90EF900895CF93DF934F
:10028000EC01888D8823C9F0EA89FB89808185FD8E
:1002900005C0A889B9898C9186FD0FC00FB607FCEF
:1002A000F5CF808185FFF2CFA889B9898C9185FF30
:1002B000EDCFCE010E94D600E7CFDF91CF91089518
:1002C00080E090E0892B29F00E94CC0081110C94F1
:1002D000000008958E3008F08E50877080648093FF
:1002E0007C0080917A00806480937A0080917A000B
:1002F00086FDFCCF809178002091790090E0922BD0
:100300000895CF93DF93EC0188819981009711F0D4
:100310000E942706198218821D821C821B821A8263
:10032000DF91CF9108950E9489070F931F93CF9378
:10033000DF93EC0188819981009729F02A813B8124
:100340002617370788F48B016F5F7F4F0E94BF0627
:10035000009761F0998388831B830A832C813D81F8
:10036000232B11F4FC01108281E001C080E0DF91B9
:10037000CF911F910F910895EF92FF920F931F93CA
:10038000CF93DF93EC01FB0184819581E080F180C4
:100390000C811D81E114F104B1F00097B9F0080F50
:1003A000191FB801CE010E949501882361F02881B0
:1003B00039818C819D81B701820F931F0E9497071D
:1003C0001D830C8303C0CE010E948101CE01DF9109
:1003D000CF911F910F91FF90EF9008950F931F936E
:1003E000CF93DF93EC010C811D810F5F1F4FB8018C
:1003F0000E949501882369F0288139818C819D8133
:1004000068E171E0820F931F0E9497071D830C83A0
:1004100003C0CE010E948101CE01DF91CF911F91D7
:100420000F910895EF92FF920F931F93CF93DF9355
:10043000EC017B018A01BA010E949501811104C07F
:10044000CE010E94810107C01D830C83B701888102
:1004500099810E949707CE01DF91CF911F910F9153
:10046000FF90EF900895EF92FF920F931F93CF9319
:10047000DF93CDB7DEB762970FB6F894DEBF0FBE3D
:10048000CDBF8C01CB01F801118210821382128240
:100490001582148250E09E012F5F3F4F7901B90110
:1004A0000E94BE04F70101900020E9F73197AF01E7
:1004B0004E195F09B701C8010E94120262960FB679
:1004C000F894DEBF0FBECDBFDF91CF911F910F918A
:1004D000FF90EF9008951F920F920FB60F92112484
:1004E0002F933F938F939F93AF93BF9380912B0153
:1004F00090912C01A0912D01B0912E0130912A01F3
:1005000023E0230F2D3720F40196A11DB11D05C056
:1005100026E8230F0296A11DB11D20932A01809386
:100520002B0190932C01A0932D01B0932E0180916B
:10053000260190912701A0912801B09129010196EF
:10054000A11DB11D8093260190932701A09328013E
:10055000B0932901BF91AF919F918F913F912F91BE
:100560000F900FBE0F901F9018951F920F920FB60D
:100570000F9211242F933F934F935F936F937F9329
:100580008F939F93AF93BF93EF93FF938FE291E08D
:100590000E94D600FF91EF91BF91AF919F918F91F3
:1005A0007F916F915F914F913F912F910F900FBE6F
:1005B0000F901F9018951F920F920FB60F92112453
:1005C0002F938F939F93EF93FF93E0913F01F091CF
:1005D00040018081E0914501F091460182FD12C009
:1005E0009081809148018F5F8F732091490182171C
:1005F00051F0E0914801F0E0E15DFE4F958F80936E
:10060000480101C08081FF91EF919F918F912F91BF
:100610000F900FBE0F901F901895EFE2F1E013823C
:10062000128288EE93E0A0E0B0E084839583A683F5
:10063000B7838AE091E09183808385EC90E0958791
:10064000848784EC90E09787868780EC90E0918B9C
:10065000808B81EC90E0938B828B82EC90E0958B89
:10066000848B86EC90E0978B868B118E128E138E86
:10067000148EECECF1E0118210821382128215824A
:10068000148240E050E06CE171E0CF010C94120262
:10069000CF93DF93CDB7DEB76E970FB6F894DEBF7A
:1006A0000FBECDBF789484B5826084BD84B581606F
:1006B00084BD85B5826085BD85B5816085BD80912D
:1006C0006E00816080936E001092810080918100A5
:1006D000826080938100809181008160809381009D
:1006E000809180008160809380008091B10084605F
:1006F0008093B1008091B00081608093B0008091C0
:100700007A00846080937A0080917A00826080937E
:100710007A0080917A00816080937A0080917A00DB
:10072000806880937A001092C100E0913F01F091BF
:10073000400182E08083E0913B01F0913C01108216
:10074000E0913D01F0913E018FEC808310924701D2
:10075000E0914301F091440186E08083E091410102
:10076000F0914201808180618083E0914101F091AC
:100770004201808188608083E0914101F0914201D3
:10078000808180688083E0914101F0914201808105
:100790008F7D808344244A9483E0582E612C712CF1
:1007A0008EE00E946A018C019093250180932401C0
:1007B0008FE00E946A017C019093230180932201C3
:1007C00080E10E946A016C019093210180932001D5
:1007D00081E10E946A015C0190931F0180931E01D8
:1007E0008EE00E946A018017910799F48FE00E94C1
:1007F0006A018E159F0569F480E10E946A018C15DB
:100800009D0539F481E10E946A018A159B0509F46E
:1008100095C028E631E0D5010E948505A30192012B
:100820000E94FE04CA01B9014AE0CE0101960E946D
:10083000330228E631E0D6010E948505A30192012A
:100840000E94FE04CA01B9014AE0CE0107960E9447
:10085000330228E631E0D7010E948505A301920109
:100860000E94FE04CA01B9014AE0CE010D960E9421
:10087000330228E631E0D8010E948505A3019201E8
:100880000E94FE04CA01B9014AE0CE0149960E94C5
:1008900033021C8A1B8A1E8A1D8A188E1F8A698D44
:1008A0007A8D6115710509F44CC04D8D5E8DCE01B8
:1008B00043960E941202CE0143960E94EE01BE01B1
:1008C000635F7F4F0E94BC010E94EE01BE01695F21
:1008D0007F4F0E94BC010E94EE01BE016F5F7F4FFF
:1008E0000E94BC0121E08C3C920781F58B899C8998
:1008F0000E942706898D9A8D0E9427068D859E85E8
:100900000E9427068F8198850E94270689819A81F7
:100910000E9427064091D0015091D1016091CC01F5
:100920007091CD018FE291E00E94600042E050E0C2
:100930006AE171E08FE291E00E9460000E94600134
:100940002FCFCE0143960E948101B5CFFC0160817B
:1009500071816115710539F0448155818CEC91E00C
:100960000E941202C3CF8CEC91E00E948101BECFA5
:100970008091CC019091CD010C9427064532510510
:1009800020F4423010F00C94C904FB011082CB011A
:100990000895BB274A3031F4992322F4BDE29095A3
:1009A00081959F4F0C94D504BB27FB015527AA279F
:1009B000880F991FAA1FA41710F0A41B83955051EC
:1009C000B9F7A05DAA3308F0A95DA193009779F764
:1009D000B111B1931192CB010C94EE04DC01FC0136
:1009E000672F71917723E1F7329704C07C916D9363
:1009F00070836291AE17BF07C8F30895052E97FB69
:100A00001EF400940E94150557FD07D00E9454055E
:100A100007FC03D04EF40C94150550954095309585
:100A200021953F4F4F4F5F4F08959095809570955A
:100A300061957F4F8F4F9F4F08952F923F924F9216
:100A40005F926F927F928F929F92AF92BF92CF925E
:100A5000DF92EF92FF920F931F93CF93DF93CDB767
:100A6000DEB7CA1BDB0B0FB6F894DEBF0FBECDBFDF
:100A700009942A88398848885F846E847D848C84B0
:100A80009B84AA84B984C884DF80EE80FD800C81B9
:100A90001B81AA81B981CE0FD11D0FB6F894DEBF9C
:100AA0000FBECDBFED010895A1E21A2EAA1BBB1BFC
:100AB000FD010DC0AA1FBB1FEE1FFF1FA217B3072A
:100AC000E407F50720F0A21BB30BE40BF50B661F40
:100AD000771F881F991F1A9469F760957095809504
:100AE00090959B01AC01BD01CF010895A29FB0017B
:100AF000B39FC001A39F700D811D1124911DB29F52
:100B0000700D811D1124911D08950E947605B7FF77
:100B10000895821B930B0895EE0FFF1F0590F4912B
:100B2000E02D0994CF93DF938230910510F482E099
:100B300090E0E091D401F091D50120E030E0C0E0F8
:100B4000D0E0309711F14081518148175907C0F02A
:100B50004817590761F482819381209719F09B838C
:100B60008A832BC09093D5018093D40126C0211590
:100B7000310519F04217530718F49A01BE01DF013D
:100B8000EF010280F381E02DDCCF2115310509F161
:100B9000281B390B2430310590F412968D919C91CD
:100BA00013976115710521F0FB019383828304C0C3
:100BB0009093D5018093D401FD01329644C0FD018C
:100BC000E20FF31F81939193225031092D933C93AF
:100BD0003AC02091D2013091D301232B41F42091CE
:100BE0000201309103013093D3012093D20120916F
:100BF0000001309101012115310541F42DB73EB7B7
:100C00004091040150910501241B350BE091D20164
:100C1000F091D301E217F307A0F42E1B3F0B281726
:100C2000390778F0AC014E5F5F4F2417350748F065
:100C30004E0F5F1F5093D3014093D2018193919344
:100C400002C0E0E0F0E0CF01DF91CF9108950F9373
:100C50001F93CF93DF93009709F48CC0FC01329768
:100C6000138212820091D4011091D5010115110552
:100C700081F420813181820F931F2091D201309124
:100C8000D3012817390779F5F093D301E093D20106
:100C900071C0D80140E050E0AE17BF0750F4129683
:100CA0002D913C911397AD012115310509F1D90121
:100CB000F3CF9D01DA013383228360817181860F36
:100CC000971F8217930769F4EC0128813981260F59
:100CD000371F2E5F3F4F318320838A819B8193830F
:100CE0008283452B29F4F093D501E093D40142C0CF
:100CF0001396FC93EE931297ED01499159919E0141
:100D0000240F351FE217F30771F480819181840F5E
:100D1000951F029611969C938E93828193811396D0
:100D20009C938E931297E0E0F0E0D80112968D919B
:100D30009C911397009719F0F8018C01F6CF8D91D3
:100D40009C9198012E5F3F4F820F931F2091D201FB
:100D50003091D3012817390769F4309729F410929C
:100D6000D5011092D40102C0138212821093D301D4
:100D70000093D201DF91CF911F910F910895A0E0D0
:100D8000B0E0E5ECF6E00C942105EC01009721F4CD
:100D9000CB010E949205B8C0FC01E60FF71F9C0131
:100DA00022503109E217F30708F4ACC0D9010D91C4
:100DB0001C91119706171707B0F00530110508F4BC
:100DC0009FC0C80104978617970708F499C002507E
:100DD0001109061B170B019311936D937C93CF019F
:100DE0000E9427068DC05B01A01AB10A4C01800E3B
:100DF000911EA091D401B091D50140E050E0E12CCA
:100E0000F12C109709F44AC0A815B905D1F56D90D9
:100E10007C901197630182E0C80ED11CCA14DB04D8
:100E200080F1A3014A195B096A0182E0C80ED11C56
:100E30001296BC9012971396AC91B5E0CB16D104E4
:100E400040F0B282A38351834083D9016D937C9398
:100E50000AC00E5F1F4FC301800F911FF9019183DC
:100E60008083EB2DFA2FE114F10431F0D7011396B2
:100E7000FC93EE93129744C0F093D501E093D40114
:100E80003FC08D919C9111974817590708F4AC0108
:100E90007D0112960D90BC91A02DB3CF8091D2010F
:100EA0009091D30188159905E1F446175707C8F4C6
:100EB0008091000190910101009741F48DB79EB798
:100EC0004091040150910501841B950BE817F90727
:100ED000C8F4F093D301E093D201F90171836083E8
:100EE0000FC0CB010E9492057C01009759F0A80128
:100EF000BE010E948E07CE010E942706C70104C0D2
:100F0000CE0102C080E090E0CDB7DEB7EEE00C94F9
:100F10003D0581E090E0F8940C949E07FB01DC0114
:100F200002C001900D9241505040D8F70895FB0146
:100F3000DC0101900D920020E1F7089510E0C5E377
:100F4000D0E004C0FE010E948C052196C633D10773
:060F5000C9F7F894FFCF81
:100F56000000D601800000000000F70060008F004E
:0E0F66003E01C0009E00B2002C000D0A0000EB
:00000001FF
