:100000000C9436000C945E000C945E000C945E0020
:100010000C945E000C945E000C945E000C945E00E8
:100020000C945E000C945E000C945E000C945E00D8
:100030000C945E000C945E000C945E000C945E00C8
:100040000C9447020C945E000C94B7020C9491023D
:100050000C945E000C945E000C945E000C945E00A8
:100060000C945E000C945E00E902A50411241FBEEE
:10007000CFEFD8E0DEBFCDBF11E0A0E0B1E0E0E31C
:10008000FFE002C005900D92AC31B107D9F721E035
:10009000ACE1B1E001C01D92A43DB207E1F710E070
:1000A000C5E3D0E004C02197FE010E947905C43366
:1000B000D107C9F70E9424030C948B070C9400000D
:1000C000CF92DF92EF92FF920F931F93CF93DF9324
:1000D0006C017A018B01C0E0D0E0CE15DF0589F01C
:1000E000D8016D918D01D601ED91FC910190F081C7
:1000F000E02DC6010995892B11F47E0102C02196DD
:10010000ECCFC701DF91CF911F910F91FF90EF903E
:10011000DF90CF900895089580E090E00895FC016D
:10012000538D448D252F30E0842F90E0821B930B5C
:10013000541710F0CF96089501970895FC01918D02
:10014000828D981761F0828DDF01A80FB11D5D9639
:100150008C91928D9F5F9F73928F90E008958FEFA7
:100160009FEF0895FC01918D828D981731F0828D5B
:10017000E80FF11D858D90E008958FEF9FEF0895B2
:10018000FC01918D228D892F90E0805C9F4F821B16
:1001900091098F73992708958DE291E00E94C00024
:1001A00021E0892B09F420E0822F0895FC01848D41
:1001B000DF01A80FB11DA35ABF4F2C91848D90E091
:1001C00001968F739927848FA689B7892C93A0896C
:1001D000B1898C9180648C93938D848D981306C023
:1001E0000288F389E02D80818F7D80830895EF92CE
:1001F000FF920F931F93CF93DF93EC0181E0888FE1
:100200009B8D8C8D981305C0E889F989808185FDC7
:1002100024C0F62E0B8D10E00F5F1F4F0F731127B8
:10022000E02E8C8DE8120CC00FB607FCFACFE889DF
:10023000F989808185FFF5CFCE010E94D600F1CFEC
:100240008B8DFE01E80FF11DE35AFF4FF0820B8FFB
:10025000EA89FB898081806207C0EE89FF8960831B
:10026000E889F98980818064808381E090E0DF9172
:10027000CF911F910F91FF90EF900895CF93DF934F
:10028000EC01888D8823C9F0EA89FB89808185FD8E
:1002900005C0A889B9898C9186FD0FC00FB607FCEF
:1002A000F5CF808185FFF2CFA889B9898C9185FF30
:1002B000EDCFCE010E94D600E7CFDF91CF91089518
:1002C00080E090E0892B29F00E94CC0081110C94F1
:1002D000000008958E3008F08E50877080648093FF
:1002E0007C0080917A00806480937A0080917A000B
:1002F00086FDFCCF809178002091790090E0922BD0
:100300000895CF93DF93EC0188819981009711F0D4
:100310000E941406198218821D821C821B821A8276
:10032000DF91CF9108950E9476070F931F93CF938B
:10033000DF93EC0188819981009729F02A813B8124
:100340002617370788F48B016F5F7F4F0E94AC063A
:10035000009761F0998388831B830A832C813D81F8
:10036000232B11F4FC01108281E001C080E0DF91B9
:10037000CF911F910F910895EF92FF920F931F93CA
:10038000CF93DF93EC01FB0184819581E080F180C4
:100390000C811D81E114F104B1F00097B9F0080F50
:1003A000191FB801CE010E949501882361F02881B0
:1003B00039818C819D81B701820F931F0E94840730
:1003C0001D830C8303C0CE010E948101CE01DF9109
:1003D000CF911F910F91FF90EF900895EF92FF92B0
:1003E0000F931F93CF93DF93EC017B018A01BA0136
:1003F0000E949501811104C0CE010E94810107C0B5
:100400001D830C83B701888199810E948407CE01E6
:10041000DF91CF911F910F91FF90EF900895EF9290
:10042000FF920F931F93CF93DF93CDB7DEB7629701
:100430000FB6F894DEBF0FBECDBF8C01CB01F80123
:1004400011821082138212821582148250E09E0162
:100450002F5F3F4F7901B9010E94AB04F701019072
:100460000020E9F73197AF014E195F09B701C801C4
:100470000E94EE0162960FB6F894DEBF0FBECDBFAC
:10048000DF91CF911F910F91FF90EF9008951F92F0
:100490000F920FB60F9211242F933F938F939F9338
:1004A000AF93BF938091290190912A01A0912B01D4
:1004B000B0912C013091280123E0230F2D3720F437
:1004C0000196A11DB11D05C026E8230F0296A11DAE
:1004D000B11D209328018093290190932A01A093B4
:1004E0002B01B0932C018091240190912501A091C2
:1004F0002601B09127010196A11DB11D8093240111
:1005000090932501A0932601B0932701BF91AF914D
:100510009F918F913F912F910F900FBE0F901F9041
:1005200018951F920F920FB60F9211242F933F939D
:100530004F935F936F937F938F939F93AF93BF93EB
:10054000EF93FF938DE291E00E94D600FF91EF912F
:10055000BF91AF919F918F917F916F915F914F91DB
:100560003F912F910F900FBE0F901F9018951F92E3
:100570000F920FB60F9211242F938F939F93EF93A7
:10058000FF93E0913D01F0913E018081E0914301B4
:10059000F091440182FD12C09081809146018F5FED
:1005A0008F7320914701821751F0E0914601F0E0EE
:1005B000E35DFE4F958F8093460101C08081FF91DE
:1005C000EF919F918F912F910F900FBE0F901F90E1
:1005D0001895EDE2F1E01382128288EE93E0A0E03C
:1005E000B0E084839583A683B7838AE091E091830A
:1005F000808385EC90E09587848784EC90E09787F2
:10060000868780EC90E0918B808B81EC90E0938BDF
:10061000828B82EC90E0958B848B86EC90E0978BBC
:10062000868B118E128E138E148EEAECF1E01182FD
:100630001082138212821582148240E050E06AE137
:1006400071E0CF010C94EE01CF93DF93CDB7DEB70D
:100650006E970FB6F894DEBF0FBECDBF789484B509
:10066000826084BD84B5816084BD85B5826085BDAE
:1006700085B5816085BD80916E00816080936E003C
:10068000109281008091810082608093810080912E
:1006900081008160809381008091800081608093DF
:1006A00080008091B10084608093B1008091B0009F
:1006B00081608093B00080917A00846080937A009A
:1006C00080917A00826080937A0080917A008160C4
:1006D00080937A0080917A00806880937A001092EB
:1006E000C100E0913D01F0913E0182E08083E09104
:1006F0003901F0913A011082E0913B01F0913C0107
:100700008FEC808310924501E0914101F09142010C
:1007100086E08083E0913F01F0914001808180611B
:100720008083E0913F01F091400180818860808367
:10073000E0913F01F0914001808180688083E091E9
:100740003F01F091400180818F7D80838FEF9FEF8B
:1007500090932301809322019093210180932001A3
:1007600090931F0180931E0190931D0180931C01A3
:10077000CC24CA9483E0D82EE12CF12C8EE00E9488
:100780006A01209122013091230182179307A9F475
:100790008FE00E946A01209120013091210182178F
:1007A000930759F480E10E946A0120911E01309163
:1007B0001F018217930709F4AEC08EE00E946A0100
:1007C0008C0190932301809322018FE00E946A01A3
:1007D0005C01909321018093200180E10E946A01D5
:1007E0004C0190931F0180931E0181E10E946A01D8
:1007F00090931D0180931C0128E631E0DC010E94EA
:100800007205A70196010E94EB04CA01B9014AE0F2
:10081000CE0149960E940F0228E631E0D4010E94E1
:100820007205A70196010E94EB04CA01B9014AE0D2
:10083000CE0143960E940F0228E631E0D5010E94C6
:100840007205A70196010E94EB04CA01B9014AE0B2
:10085000CE010D960E940F0228E631E0D8010E94D9
:100860007205A70196010E94EB04CA01B9014AE092
:10087000CE0101960E940F0218861F821A861986E1
:100880001C861B8669817A816115710509F446C051
:100890004D815E81CE0107960E94EE01BE01635F2D
:1008A0007F4FCE0107960E94BC01BE016D5E7F4F57
:1008B0000E94BC01BE01675E7F4F0E94BC0121E027
:1008C0008A3C920781F58F8198850E941406898160
:1008D0009A810E9414068D859E850E9414068B893C
:1008E0009C890E941406898D9A8D0E94140640915D
:1008F000CE015091CF016091CA017091CB018DE280
:1009000091E00E94600042E050E068E171E08DE219
:1009100091E00E9460000E94600130CFCE010796F6
:100920000E948101BBCFFC0160817181611571055D
:1009300039F0448155818AEC91E00E94EE01C3CFE9
:100940008AEC91E00E948101BECF8091CA01909112
:10095000CB010C9414064532510520F4423010F0BE
:100960000C94B604FB011082CB010895BB274A30DA
:1009700031F4992322F4BDE2909581959F4F0C9418
:10098000C204BB27FB015527AA27880F991FAA1F5E
:10099000A41710F0A41B83955051B9F7A05DAA339A
:1009A00008F0A95DA193009779F7B111B193119265
:1009B000CB010C94DB04DC01FC01672F71917723E0
:1009C000E1F7329704C07C916D9370836291AE170A
:1009D000BF07C8F30895052E97FB1EF400940E94EC
:1009E000020557FD07D00E94410507FC03D04EF4D5
:1009F0000C94020550954095309521953F4F4F4FEF
:100A00005F4F089590958095709561957F4F8F4FBA
:100A10009F4F08952F923F924F925F926F927F92D5
:100A20008F929F92AF92BF92CF92DF92EF92FF92FE
:100A30000F931F93CF93DF93CDB7DEB7CA1BDB0BAA
:100A40000FB6F894DEBF0FBECDBF09942A8839884F
:100A500048885F846E847D848C849B84AA84B98456
:100A6000C884DF80EE80FD800C811B81AA81B98162
:100A7000CE0FD11D0FB6F894DEBF0FBECDBFED0176
:100A80000895A1E21A2EAA1BBB1BFD010DC0AA1FCF
:100A9000BB1FEE1FFF1FA217B307E407F50720F0E7
:100AA000A21BB30BE40BF50B661F771F881F991F62
:100AB0001A9469F760957095809590959B01AC01AB
:100AC000BD01CF010895A29FB001B39FC001A39FB4
:100AD000700D811D1124911DB29F700D811D112477
:100AE000911D08950E946305B7FF0895821B930B23
:100AF0000895EE0FFF1F0590F491E02D0994CF9318
:100B0000DF938230910510F482E090E0E091D20111
:100B1000F091D30120E030E0C0E0D0E0309711F157
:100B20004081518148175907C0F04817590761F4AF
:100B300082819381209719F09B838A832BC09093A5
:100B4000D3018093D20126C02115310519F0421737
:100B5000530718F49A01BE01DF01EF010280F3810F
:100B6000E02DDCCF2115310509F1281B390B24308C
:100B7000310590F412968D919C9113976115710532
:100B800021F0FB019383828304C09093D30180936F
:100B9000D201FD01329644C0FD01E20FF31F8193A3
:100BA0009193225031092D933C933AC02091D0016A
:100BB0003091D101232B41F42091020130910301A6
:100BC0003093D1012093D001209100013091010197
:100BD0002115310541F42DB73EB7409104015091E4
:100BE0000501241B350BE091D001F091D101E217F2
:100BF000F307A0F42E1B3F0B2817390778F0AC0140
:100C00004E5F5F4F2417350748F04E0F5F1F50931C
:100C1000D1014093D0018193919302C0E0E0F0E0D4
:100C2000CF01DF91CF9108950F931F93CF93DF935F
:100C3000009709F48CC0FC01329713821282009154
:100C4000D2011091D3010115110581F42081318168
:100C5000820F931F2091D0013091D10128173907BD
:100C600079F5F093D101E093D00171C0D80140E053
:100C700050E0AE17BF0750F412962D913C91139798
:100C8000AD012115310509F1D901F3CF9D01DA013B
:100C90003383228360817181860F971F82179307A8
:100CA00069F4EC0128813981260F371F2E5F3F4FF1
:100CB000318320838A819B8193838283452B29F40E
:100CC000F093D301E093D20142C01396FC93EE93CC
:100CD0001297ED01499159919E01240F351FE2179A
:100CE000F30771F480819181840F951F029611960C
:100CF0009C938E938281938113969C938E931297EB
:100D0000E0E0F0E0D80112968D919C911397009746
:100D100019F0F8018C01F6CF8D919C9198012E5F0E
:100D20003F4F820F931F2091D0013091D10128179E
:100D3000390769F4309729F41092D3011092D20147
:100D400002C0138212821093D1010093D001DF916F
:100D5000CF911F910F910895A0E0B0E0E2EBF6E093
:100D60000C940E05EC01009721F4CB010E947F0545
:100D7000B8C0FC01E60FF71F9C0122503109E217B1
:100D8000F30708F4ACC0D9010D911C911197061717
:100D90001707B0F00530110508F49FC0C80104978B
:100DA0008617970708F499C002501109061B170B04
:100DB000019311936D937C93CF010E9414068DC013
:100DC0005B01A01AB10A4C01800E911EA091D201C4
:100DD000B091D30140E050E0E12CF12C109709F4E0
:100DE0004AC0A815B905D1F56D907C9011976301A3
:100DF00082E0C80ED11CCA14DB0480F1A3014A1999
:100E00005B096A0182E0C80ED11C1296BC90129751
:100E10001396AC91B5E0CB16D10440F0B282A38317
:100E200051834083D9016D937C930AC00E5F1F4F9D
:100E3000C301800F911FF90191838083EB2DFA2F5D
:100E4000E114F10431F0D7011396FC93EE9312975D
:100E500044C0F093D301E093D2013FC08D919C91A7
:100E600011974817590708F4AC017D0112960D90AF
:100E7000BC91A02DB3CF8091D0019091D101881564
:100E80009905E1F446175707C8F480910001909145
:100E90000101009741F48DB79EB740910401509134
:100EA0000501841B950BE817F907C8F4F093D101ED
:100EB000E093D001F901718360830FC0CB010E94E0
:100EC0007F057C01009759F0A801BE010E947B07B5
:100ED000CE010E941406C70104C0CE0102C080E00A
:100EE00090E0CDB7DEB7EEE00C942A0581E090E00B
:100EF000F8940C948B07FB01DC0102C001900D9269
:100F000041505040D8F70895FB01DC0101900D924B
:100F10000020E1F7089510E0C5E3D0E004C0FE0131
:100F20000E9479052196C633D107C9F7F894FFCFFF
:100F30000000D401800000000000F70060008F0076
:0C0F40003E01C0009E00B2000D0A00003F
:00000001FF
